{
  "abi": [
    {
      "inputs": [
        {
          "internalType": "string",
          "name": "_tokenUri",
          "type": "string"
        }
      ],
      "stateMutability": "nonpayable",
      "type": "constructor"
    },
    {
      "anonymous": false,
      "inputs": [
        {
          "indexed": true,
          "internalType": "address",
          "name": "account",
          "type": "address"
        },
        {
          "indexed": true,
          "internalType": "address",
          "name": "operator",
          "type": "address"
        },
        {
          "indexed": false,
          "internalType": "bool",
          "name": "approved",
          "type": "bool"
        }
      ],
      "name": "ApprovalForAll",
      "type": "event"
    },
    {
      "anonymous": false,
      "inputs": [
        {
          "indexed": true,
          "internalType": "address",
          "name": "previousOwner",
          "type": "address"
        },
        {
          "indexed": true,
          "internalType": "address",
          "name": "newOwner",
          "type": "address"
        }
      ],
      "name": "OwnershipTransferred",
      "type": "event"
    },
    {
      "anonymous": false,
      "inputs": [
        {
          "indexed": true,
          "internalType": "address",
          "name": "operator",
          "type": "address"
        },
        {
          "indexed": true,
          "internalType": "address",
          "name": "from",
          "type": "address"
        },
        {
          "indexed": true,
          "internalType": "address",
          "name": "to",
          "type": "address"
        },
        {
          "indexed": false,
          "internalType": "uint256[]",
          "name": "ids",
          "type": "uint256[]"
        },
        {
          "indexed": false,
          "internalType": "uint256[]",
          "name": "values",
          "type": "uint256[]"
        }
      ],
      "name": "TransferBatch",
      "type": "event"
    },
    {
      "anonymous": false,
      "inputs": [
        {
          "indexed": true,
          "internalType": "address",
          "name": "operator",
          "type": "address"
        },
        {
          "indexed": true,
          "internalType": "address",
          "name": "from",
          "type": "address"
        },
        {
          "indexed": true,
          "internalType": "address",
          "name": "to",
          "type": "address"
        },
        {
          "indexed": false,
          "internalType": "uint256",
          "name": "id",
          "type": "uint256"
        },
        {
          "indexed": false,
          "internalType": "uint256",
          "name": "value",
          "type": "uint256"
        }
      ],
      "name": "TransferSingle",
      "type": "event"
    },
    {
      "anonymous": false,
      "inputs": [
        {
          "indexed": false,
          "internalType": "string",
          "name": "value",
          "type": "string"
        },
        {
          "indexed": true,
          "internalType": "uint256",
          "name": "id",
          "type": "uint256"
        }
      ],
      "name": "URI",
      "type": "event"
    },
    {
      "inputs": [],
      "name": "CLOUD",
      "outputs": [
        {
          "internalType": "uint256",
          "name": "",
          "type": "uint256"
        }
      ],
      "stateMutability": "view",
      "type": "function"
    },
    {
      "inputs": [],
      "name": "FRIEND",
      "outputs": [
        {
          "internalType": "uint256",
          "name": "",
          "type": "uint256"
        }
      ],
      "stateMutability": "view",
      "type": "function"
    },
    {
      "inputs": [],
      "name": "MAX_SUPPLY",
      "outputs": [
        {
          "internalType": "uint256",
          "name": "",
          "type": "uint256"
        }
      ],
      "stateMutability": "view",
      "type": "function"
    },
    {
      "inputs": [],
      "name": "MINT_LIMIT",
      "outputs": [
        {
          "internalType": "uint256",
          "name": "",
          "type": "uint256"
        }
      ],
      "stateMutability": "view",
      "type": "function"
    },
    {
      "inputs": [],
      "name": "MINT_PRICE",
      "outputs": [
        {
          "internalType": "uint256",
          "name": "",
          "type": "uint256"
        }
      ],
      "stateMutability": "view",
      "type": "function"
    },
    {
      "inputs": [],
      "name": "PLEASURE",
      "outputs": [
        {
          "internalType": "uint256",
          "name": "",
          "type": "uint256"
        }
      ],
      "stateMutability": "view",
      "type": "function"
    },
    {
      "inputs": [],
      "name": "SUCCESS",
      "outputs": [
        {
          "internalType": "uint256",
          "name": "",
          "type": "uint256"
        }
      ],
      "stateMutability": "view",
      "type": "function"
    },
    {
      "inputs": [],
      "name": "WORK",
      "outputs": [
        {
          "internalType": "uint256",
          "name": "",
          "type": "uint256"
        }
      ],
      "stateMutability": "view",
      "type": "function"
    },
    {
      "inputs": [
        {
          "internalType": "address",
          "name": "account",
          "type": "address"
        },
        {
          "internalType": "uint256",
          "name": "id",
          "type": "uint256"
        }
      ],
      "name": "balanceOf",
      "outputs": [
        {
          "internalType": "uint256",
          "name": "",
          "type": "uint256"
        }
      ],
      "stateMutability": "view",
      "type": "function"
    },
    {
      "inputs": [
        {
          "internalType": "address[]",
          "name": "accounts",
          "type": "address[]"
        },
        {
          "internalType": "uint256[]",
          "name": "ids",
          "type": "uint256[]"
        }
      ],
      "name": "balanceOfBatch",
      "outputs": [
        {
          "internalType": "uint256[]",
          "name": "",
          "type": "uint256[]"
        }
      ],
      "stateMutability": "view",
      "type": "function"
    },
    {
      "inputs": [],
      "name": "baseURI",
      "outputs": [
        {
          "internalType": "string",
          "name": "",
          "type": "string"
        }
      ],
      "stateMutability": "view",
      "type": "function"
    },
    {
      "inputs": [
        {
          "internalType": "uint256",
          "name": "id",
          "type": "uint256"
        }
      ],
      "name": "exists",
      "outputs": [
        {
          "internalType": "bool",
          "name": "",
          "type": "bool"
        }
      ],
      "stateMutability": "view",
      "type": "function"
    },
    {
      "inputs": [
        {
          "internalType": "address",
          "name": "account",
          "type": "address"
        },
        {
          "internalType": "address",
          "name": "operator",
          "type": "address"
        }
      ],
      "name": "isApprovedForAll",
      "outputs": [
        {
          "internalType": "bool",
          "name": "",
          "type": "bool"
        }
      ],
      "stateMutability": "view",
      "type": "function"
    },
    {
      "inputs": [
        {
          "internalType": "uint256",
          "name": "",
          "type": "uint256"
        }
      ],
      "name": "isValidTokenId",
      "outputs": [
        {
          "internalType": "bool",
          "name": "",
          "type": "bool"
        }
      ],
      "stateMutability": "view",
      "type": "function"
    },
    {
      "inputs": [
        {
          "internalType": "uint256[]",
          "name": "tokenIds",
          "type": "uint256[]"
        },
        {
          "internalType": "uint256[]",
          "name": "numEachTokens",
          "type": "uint256[]"
        }
      ],
      "name": "mintBatchOfWords",
      "outputs": [],
      "stateMutability": "payable",
      "type": "function"
    },
    {
      "inputs": [
        {
          "internalType": "uint256",
          "name": "tokenId",
          "type": "uint256"
        },
        {
          "internalType": "uint256",
          "name": "numTokens",
          "type": "uint256"
        }
      ],
      "name": "mintYourWord",
      "outputs": [],
      "stateMutability": "payable",
      "type": "function"
    },
    {
      "inputs": [],
      "name": "name",
      "outputs": [
        {
          "internalType": "string",
          "name": "",
          "type": "string"
        }
      ],
      "stateMutability": "view",
      "type": "function"
    },
    {
      "inputs": [],
      "name": "owner",
      "outputs": [
        {
          "internalType": "address",
          "name": "",
          "type": "address"
        }
      ],
      "stateMutability": "view",
      "type": "function"
    },
    {
      "inputs": [],
      "name": "renounceOwnership",
      "outputs": [],
      "stateMutability": "nonpayable",
      "type": "function"
    },
    {
      "inputs": [
        {
          "internalType": "address",
          "name": "from",
          "type": "address"
        },
        {
          "internalType": "address",
          "name": "to",
          "type": "address"
        },
        {
          "internalType": "uint256[]",
          "name": "ids",
          "type": "uint256[]"
        },
        {
          "internalType": "uint256[]",
          "name": "amounts",
          "type": "uint256[]"
        },
        {
          "internalType": "bytes",
          "name": "data",
          "type": "bytes"
        }
      ],
      "name": "safeBatchTransferFrom",
      "outputs": [],
      "stateMutability": "nonpayable",
      "type": "function"
    },
    {
      "inputs": [
        {
          "internalType": "address",
          "name": "from",
          "type": "address"
        },
        {
          "internalType": "address",
          "name": "to",
          "type": "address"
        },
        {
          "internalType": "uint256",
          "name": "id",
          "type": "uint256"
        },
        {
          "internalType": "uint256",
          "name": "amount",
          "type": "uint256"
        },
        {
          "internalType": "bytes",
          "name": "data",
          "type": "bytes"
        }
      ],
      "name": "safeTransferFrom",
      "outputs": [],
      "stateMutability": "nonpayable",
      "type": "function"
    },
    {
      "inputs": [
        {
          "internalType": "address",
          "name": "operator",
          "type": "address"
        },
        {
          "internalType": "bool",
          "name": "approved",
          "type": "bool"
        }
      ],
      "name": "setApprovalForAll",
      "outputs": [],
      "stateMutability": "nonpayable",
      "type": "function"
    },
    {
      "inputs": [
        {
          "internalType": "bytes4",
          "name": "interfaceId",
          "type": "bytes4"
        }
      ],
      "name": "supportsInterface",
      "outputs": [
        {
          "internalType": "bool",
          "name": "",
          "type": "bool"
        }
      ],
      "stateMutability": "view",
      "type": "function"
    },
    {
      "inputs": [
        {
          "internalType": "uint256",
          "name": "id",
          "type": "uint256"
        }
      ],
      "name": "totalSupply",
      "outputs": [
        {
          "internalType": "uint256",
          "name": "",
          "type": "uint256"
        }
      ],
      "stateMutability": "view",
      "type": "function"
    },
    {
      "inputs": [
        {
          "internalType": "address",
          "name": "newOwner",
          "type": "address"
        }
      ],
      "name": "transferOwnership",
      "outputs": [],
      "stateMutability": "nonpayable",
      "type": "function"
    },
    {
      "inputs": [
        {
          "internalType": "string",
          "name": "_newUri",
          "type": "string"
        }
      ],
      "name": "updateUri",
      "outputs": [],
      "stateMutability": "nonpayable",
      "type": "function"
    },
    {
      "inputs": [
        {
          "internalType": "uint256",
          "name": "tokenId",
          "type": "uint256"
        }
      ],
      "name": "uri",
      "outputs": [
        {
          "internalType": "string",
          "name": "",
          "type": "string"
        }
      ],
      "stateMutability": "view",
      "type": "function"
    },
    {
      "inputs": [],
      "name": "withdrawBalance",
      "outputs": [],
      "stateMutability": "nonpayable",
      "type": "function"
    }
  ],
  "bytecode": {
    "object": "0x600560065560c0604052600f60809081526e29b7b6b2902bb7b932399021b63ab160891b60a05260079062000035908262000290565b503480156200004357600080fd5b5060405162002d2338038062002d2383398101604081905262000066916200035c565b604080516020810190915260008152620000808162000187565b506001600455620000913362000199565b60086200009f828262000290565b505060096020527fec8156718a8372b1db44bb411437d0870f3e3790d4a08526d024ce1b0b668f6b8054600160ff1991821681179092557f92e85d02570a8092d09a6e3a57665bc3815a2699a4074001bf1ccabf660f5a3680548216831790557f6cde3cea4b3a3fb2488b2808bae7556f4a405e50f65e1794383bc026131b13c380548216831790557fc575c31fea594a6eb97c8e9d3f9caee4c16218c6ef37e923234c0fe9014a61e7805482168317905560046000527f8dc18c4ccfd75f5c815b63770fa542fd953e8fef7e0e44bbdd4913470ce7e9cb8054909116909117905562000438565b600262000195828262000290565b5050565b600580546001600160a01b038381166001600160a01b0319831681179093556040519116919082907f8be0079c531659141344cd1fd0a4f28419497f9722a3daafe3b4186f6b6457e090600090a35050565b634e487b7160e01b600052604160045260246000fd5b600181811c908216806200021657607f821691505b6020821081036200023757634e487b7160e01b600052602260045260246000fd5b50919050565b601f8211156200028b57600081815260208120601f850160051c81016020861015620002665750805b601f850160051c820191505b81811015620002875782815560010162000272565b5050505b505050565b81516001600160401b03811115620002ac57620002ac620001eb565b620002c481620002bd845462000201565b846200023d565b602080601f831160018114620002fc5760008415620002e35750858301515b600019600386901b1c1916600185901b17855562000287565b600085815260208120601f198616915b828110156200032d578886015182559484019460019091019084016200030c565b50858210156200034c5787850151600019600388901b60f8161c191681555b5050505050600190811b01905550565b600060208083850312156200037057600080fd5b82516001600160401b03808211156200038857600080fd5b818501915085601f8301126200039d57600080fd5b815181811115620003b257620003b2620001eb565b604051601f8201601f19908116603f01168101908382118183101715620003dd57620003dd620001eb565b816040528281528886848701011115620003f657600080fd5b600093505b828410156200041a5784840186015181850187015292850192620003fb565b828411156200042c5760008684830101525b98975050505050505050565b6128db80620004486000396000f3fe6080604052600436106101b65760003560e01c8063697ffbc6116100ec578063bd85b0391161008a578063d0a6d1a611610064578063d0a6d1a6146104a3578063e985e9c5146104b8578063f242432a14610501578063f2fde38b1461052157600080fd5b8063bd85b03914610446578063c002d23d14610473578063c2d219c01461048e57600080fd5b8063788255ea116100c6578063788255ea146103d65780637a1cd1fa146103eb5780638da5cb5b146103fe578063a22cb4651461042657600080fd5b8063697ffbc6146103975780636c0360eb146103ac578063715018a6146103c157600080fd5b80632eb2c2d6116101595780634f558e79116101335780634f558e7914610320578063570b3c6a1461034f5780635812d9a71461036f5780635fd8c7101461038257600080fd5b80632eb2c2d6146102bb57806332cb6b0c146102dd5780634e1273f4146102f357600080fd5b806306fdde031161019557806306fdde03146102345780630e89341c146102565780631b607cd4146102765780632c1b38ee1461028b57600080fd5b8062fdd58e146101bb57806301ffc9a7146101ee578063027752401461021e575b600080fd5b3480156101c757600080fd5b506101db6101d6366004611c4c565b610541565b6040519081526020015b60405180910390f35b3480156101fa57600080fd5b5061020e610209366004611c8c565b6105d7565b60405190151581526020016101e5565b34801561022a57600080fd5b506101db60065481565b34801561024057600080fd5b50610249610629565b6040516101e59190611d0c565b34801561026257600080fd5b50610249610271366004611d1f565b6106b7565b34801561028257600080fd5b506101db600281565b34801561029757600080fd5b5061020e6102a6366004611d1f565b60096020526000908152604090205460ff1681565b3480156102c757600080fd5b506102db6102d6366004611e8e565b61074f565b005b3480156102e957600080fd5b506101db6109c481565b3480156102ff57600080fd5b5061031361030e366004611f38565b61079b565b6040516101e5919061203e565b34801561032c57600080fd5b5061020e61033b366004611d1f565b600090815260036020526040902054151590565b34801561035b57600080fd5b506102db61036a366004612051565b6108c5565b6102db61037d36600461209a565b6108dd565b34801561038e57600080fd5b506102db610a7f565b3480156103a357600080fd5b506101db600181565b3480156103b857600080fd5b50610249610b20565b3480156103cd57600080fd5b506102db610b2d565b3480156103e257600080fd5b506101db600081565b6102db6103f93660046120bc565b610b41565b34801561040a57600080fd5b506005546040516001600160a01b0390911681526020016101e5565b34801561043257600080fd5b506102db610441366004612109565b610dfd565b34801561045257600080fd5b506101db610461366004611d1f565b60009081526003602052604090205490565b34801561047f57600080fd5b506101db6608e1bc9bf0400081565b34801561049a57600080fd5b506101db600381565b3480156104af57600080fd5b506101db600481565b3480156104c457600080fd5b5061020e6104d3366004612145565b6001600160a01b03918216600090815260016020908152604080832093909416825291909152205460ff1690565b34801561050d57600080fd5b506102db61051c366004612178565b610e08565b34801561052d57600080fd5b506102db61053c3660046121dd565b610e4d565b60006001600160a01b0383166105b15760405162461bcd60e51b815260206004820152602a60248201527f455243313135353a2061646472657373207a65726f206973206e6f742061207660448201526930b634b21037bbb732b960b11b60648201526084015b60405180910390fd5b506000908152602081815260408083206001600160a01b03949094168352929052205490565b60006001600160e01b03198216636cdb3d1360e11b148061060857506001600160e01b031982166303a24d0760e21b145b8061062357506301ffc9a760e01b6001600160e01b03198316145b92915050565b60078054610636906121f8565b80601f0160208091040260200160405190810160405280929190818152602001828054610662906121f8565b80156106af5780601f10610684576101008083540402835291602001916106af565b820191906000526020600020905b81548152906001019060200180831161069257829003601f168201915b505050505081565b60008181526009602052604090205460609060ff16151560011461071d5760405162461bcd60e51b815260206004820152601c60248201527f4552524f522c206f7574206f6620626f756e647320746f6b656e49640000000060448201526064016105a8565b600861072883610ec3565b604051602001610739929190612232565b6040516020818303038152906040529050919050565b6001600160a01b03851633148061076b575061076b85336104d3565b6107875760405162461bcd60e51b81526004016105a8906122c9565b6107948585858585610fcc565b5050505050565b606081518351146108005760405162461bcd60e51b815260206004820152602960248201527f455243313135353a206163636f756e747320616e6420696473206c656e677468604482015268040dad2e6dac2e8c6d60bb1b60648201526084016105a8565b6000835167ffffffffffffffff81111561081c5761081c611d38565b604051908082528060200260200182016040528015610845578160200160208202803683370190505b50905060005b84518110156108bd5761089085828151811061086957610869612318565b602002602001015185838151811061088357610883612318565b6020026020010151610541565b8282815181106108a2576108a2612318565b60209081029190910101526108b681612344565b905061084b565b509392505050565b6108cd611176565b60086108d982826123a3565b5050565b60026004540361092f5760405162461bcd60e51b815260206004820152601f60248201527f5265656e7472616e637947756172643a207265656e7472616e742063616c6c0060448201526064016105a8565b600260045560008281526009602052604090205460ff1615156001146109975760405162461bcd60e51b815260206004820152601c60248201527f4552524f522c206f7574206f6620626f756e647320746f6b656e49640000000060448201526064016105a8565b6006548111156109b95760405162461bcd60e51b81526004016105a890612463565b6109c4816109d38460009081526003602052604090205490565b6109dd91906124a4565b11156109fb5760405162461bcd60e51b81526004016105a8906124bc565b610a0c6608e1bc9bf0400082612505565b341015610a5b5760405162461bcd60e51b815260206004820152601c60248201527f4552524f522c206e6f7420656e6f7567682065746820746f206275790000000060448201526064016105a8565b610a76338383604051806020016040528060008152506111d0565b50506001600455565b610a87611176565b4780610acd5760405162461bcd60e51b81526020600482015260156024820152744e6f20616d6f756e7420746f20776974686472617760581b60448201526064016105a8565b610b02816040518060400160405280601381526020017262616c616e636520696e20776974686472617760681b8152506112b9565b610b1d610b176005546001600160a01b031690565b826112fe565b50565b60088054610636906121f8565b610b35611176565b610b3f600061141c565b565b600260045403610b935760405162461bcd60e51b815260206004820152601f60248201527f5265656e7472616e637947756172643a207265656e7472616e742063616c6c0060448201526064016105a8565b6002600481905550610bce825182516040518060400160405280600e81526020016d6c656e677468206f66206172677360901b81525061146e565b8051825114610bef5760405162461bcd60e51b81526004016105a890612524565b6000805b8351811015610d26576000848281518110610c1057610c10612318565b602002602001015190506000848381518110610c2e57610c2e612318565b6020908102919091018101516000848152600990925260409091205490915060ff161515600114610ca15760405162461bcd60e51b815260206004820152601c60248201527f4572726f722c206f7574206f6620626f756e647320746f6b656e49640000000060448201526064016105a8565b600654811115610cc35760405162461bcd60e51b81526004016105a890612463565b6109c481610cdd8460009081526003602052604090205490565b610ce791906124a4565b1115610d055760405162461bcd60e51b81526004016105a8906124bc565b610d0f81856124a4565b935050508080610d1e90612344565b915050610bf3565b50610d386608e1bc9bf0400082612505565b341015610d875760405162461bcd60e51b815260206004820152601c60248201527f4552524f522c206e6f7420656e6f7567682065746820746f206275790000000060448201526064016105a8565b6001811015610dd85760405162461bcd60e51b815260206004820152601860248201527f4d757374206d696e74206174206c656173742031204e4654000000000000000060448201526064016105a8565b610df3338484604051806020016040528060008152506114b5565b5050600160045550565b6108d933838361160f565b6001600160a01b038516331480610e245750610e2485336104d3565b610e405760405162461bcd60e51b81526004016105a8906122c9565b61079485858585856116ef565b610e55611176565b6001600160a01b038116610eba5760405162461bcd60e51b815260206004820152602660248201527f4f776e61626c653a206e6577206f776e657220697320746865207a65726f206160448201526564647265737360d01b60648201526084016105a8565b610b1d8161141c565b606081600003610eea5750506040805180820190915260018152600360fc1b602082015290565b8160005b8115610f145780610efe81612344565b9150610f0d9050600a83612582565b9150610eee565b60008167ffffffffffffffff811115610f2f57610f2f611d38565b6040519080825280601f01601f191660200182016040528015610f59576020820181803683370190505b5090505b8415610fc457610f6e600183612596565b9150610f7b600a866125ad565b610f869060306124a4565b60f81b818381518110610f9b57610f9b612318565b60200101906001600160f81b031916908160001a905350610fbd600a86612582565b9450610f5d565b949350505050565b8151835114610fed5760405162461bcd60e51b81526004016105a890612524565b6001600160a01b0384166110135760405162461bcd60e51b81526004016105a8906125c1565b33611022818787878787611827565b60005b845181101561110857600085828151811061104257611042612318565b60200260200101519050600085838151811061106057611060612318565b602090810291909101810151600084815280835260408082206001600160a01b038e1683529093529190912054909150818110156110b05760405162461bcd60e51b81526004016105a890612606565b6000838152602081815260408083206001600160a01b038e8116855292528083208585039055908b168252812080548492906110ed9084906124a4565b925050819055505050508061110190612344565b9050611025565b50846001600160a01b0316866001600160a01b0316826001600160a01b03167f4a39dc06d4c0dbc64b70af90fd698a233a518aa5d07e595d983b8c0526c8f7fb8787604051611158929190612650565b60405180910390a461116e818787878787611835565b505050505050565b6005546001600160a01b03163314610b3f5760405162461bcd60e51b815260206004820181905260248201527f4f776e61626c653a2063616c6c6572206973206e6f7420746865206f776e657260448201526064016105a8565b6001600160a01b0384166111f65760405162461bcd60e51b81526004016105a89061267e565b33600061120285611990565b9050600061120f85611990565b905061122083600089858589611827565b6000868152602081815260408083206001600160a01b038b168452909152812080548792906112509084906124a4565b909155505060408051878152602081018790526001600160a01b03808a1692600092918716917fc3d58168c5ae7397731d063d5bbf3d657854427343f4c083240f7aacaa2d0f62910160405180910390a46112b0836000898989896119db565b50505050505050565b6108d982826040516024016112cf9291906126bf565b60408051601f198184030181529190526020810180516001600160e01b031663643fd0df60e01b179052611a96565b8047101561134e5760405162461bcd60e51b815260206004820152601d60248201527f416464726573733a20696e73756666696369656e742062616c616e636500000060448201526064016105a8565b6000826001600160a01b03168260405160006040518083038185875af1925050503d806000811461139b576040519150601f19603f3d011682016040523d82523d6000602084013e6113a0565b606091505b50509050806114175760405162461bcd60e51b815260206004820152603a60248201527f416464726573733a20756e61626c6520746f2073656e642076616c75652c207260448201527f6563697069656e74206d6179206861766520726576657274656400000000000060648201526084016105a8565b505050565b600580546001600160a01b038381166001600160a01b0319831681179093556040519116919082907f8be0079c531659141344cd1fd0a4f28419497f9722a3daafe3b4186f6b6457e090600090a35050565b611417838383604051602401611486939291906126d8565b60408051601f198184030181529190526020810180516001600160e01b03166338e8257960e11b179052611a96565b6001600160a01b0384166114db5760405162461bcd60e51b81526004016105a89061267e565b81518351146114fc5760405162461bcd60e51b81526004016105a890612524565b3361150c81600087878787611827565b60005b84518110156115a75783818151811061152a5761152a612318565b602002602001015160008087848151811061154757611547612318565b602002602001015181526020019081526020016000206000886001600160a01b03166001600160a01b03168152602001908152602001600020600082825461158f91906124a4565b9091555081905061159f81612344565b91505061150f565b50846001600160a01b031660006001600160a01b0316826001600160a01b03167f4a39dc06d4c0dbc64b70af90fd698a233a518aa5d07e595d983b8c0526c8f7fb87876040516115f8929190612650565b60405180910390a461079481600087878787611835565b816001600160a01b0316836001600160a01b0316036116825760405162461bcd60e51b815260206004820152602960248201527f455243313135353a2073657474696e6720617070726f76616c20737461747573604482015268103337b91039b2b63360b91b60648201526084016105a8565b6001600160a01b03838116600081815260016020908152604080832094871680845294825291829020805460ff191686151590811790915591519182527f17307eab39ab6107e8899845ad3d59bd9653f200f220920489ca2b5937696c31910160405180910390a3505050565b6001600160a01b0384166117155760405162461bcd60e51b81526004016105a8906125c1565b33600061172185611990565b9050600061172e85611990565b905061173e838989858589611827565b6000868152602081815260408083206001600160a01b038c1684529091529020548581101561177f5760405162461bcd60e51b81526004016105a890612606565b6000878152602081815260408083206001600160a01b038d8116855292528083208985039055908a168252812080548892906117bc9084906124a4565b909155505060408051888152602081018890526001600160a01b03808b16928c821692918816917fc3d58168c5ae7397731d063d5bbf3d657854427343f4c083240f7aacaa2d0f62910160405180910390a461181c848a8a8a8a8a6119db565b505050505050505050565b61116e868686868686611ab7565b6001600160a01b0384163b1561116e5760405163bc197c8160e01b81526001600160a01b0385169063bc197c819061187990899089908890889088906004016126f7565b6020604051808303816000875af19250505080156118b4575060408051601f3d908101601f191682019092526118b191810190612755565b60015b611960576118c0612772565b806308c379a0036118f957506118d461278e565b806118df57506118fb565b8060405162461bcd60e51b81526004016105a89190611d0c565b505b60405162461bcd60e51b815260206004820152603460248201527f455243313135353a207472616e7366657220746f206e6f6e20455243313135356044820152732932b1b2b4bb32b91034b6b83632b6b2b73a32b960611b60648201526084016105a8565b6001600160e01b0319811663bc197c8160e01b146112b05760405162461bcd60e51b81526004016105a890612818565b604080516001808252818301909252606091600091906020808301908036833701905050905082816000815181106119ca576119ca612318565b602090810291909101015292915050565b6001600160a01b0384163b1561116e5760405163f23a6e6160e01b81526001600160a01b0385169063f23a6e6190611a1f9089908990889088908890600401612860565b6020604051808303816000875af1925050508015611a5a575060408051601f3d908101601f19168201909252611a5791810190612755565b60015b611a66576118c0612772565b6001600160e01b0319811663f23a6e6160e01b146112b05760405162461bcd60e51b81526004016105a890612818565b80516a636f6e736f6c652e6c6f67602083016000808483855afa5050505050565b6001600160a01b038516611b3e5760005b8351811015611b3c57828181518110611ae357611ae3612318565b602002602001015160036000868481518110611b0157611b01612318565b602002602001015181526020019081526020016000206000828254611b2691906124a4565b90915550611b35905081612344565b9050611ac8565b505b6001600160a01b03841661116e5760005b83518110156112b0576000848281518110611b6c57611b6c612318565b602002602001015190506000848381518110611b8a57611b8a612318565b6020026020010151905060006003600084815260200190815260200160002054905081811015611c0d5760405162461bcd60e51b815260206004820152602860248201527f455243313135353a206275726e20616d6f756e74206578636565647320746f74604482015267616c537570706c7960c01b60648201526084016105a8565b60009283526003602052604090922091039055611c2981612344565b9050611b4f565b80356001600160a01b0381168114611c4757600080fd5b919050565b60008060408385031215611c5f57600080fd5b611c6883611c30565b946020939093013593505050565b6001600160e01b031981168114610b1d57600080fd5b600060208284031215611c9e57600080fd5b8135611ca981611c76565b9392505050565b60005b83811015611ccb578181015183820152602001611cb3565b83811115611cda576000848401525b50505050565b60008151808452611cf8816020860160208601611cb0565b601f01601f19169290920160200192915050565b602081526000611ca96020830184611ce0565b600060208284031215611d3157600080fd5b5035919050565b634e487b7160e01b600052604160045260246000fd5b601f8201601f1916810167ffffffffffffffff81118282101715611d7457611d74611d38565b6040525050565b600067ffffffffffffffff821115611d9557611d95611d38565b5060051b60200190565b600082601f830112611db057600080fd5b81356020611dbd82611d7b565b604051611dca8282611d4e565b83815260059390931b8501820192828101915086841115611dea57600080fd5b8286015b84811015611e055780358352918301918301611dee565b509695505050505050565b600067ffffffffffffffff831115611e2a57611e2a611d38565b604051611e41601f8501601f191660200182611d4e565b809150838152848484011115611e5657600080fd5b83836020830137600060208583010152509392505050565b600082601f830112611e7f57600080fd5b611ca983833560208501611e10565b600080600080600060a08688031215611ea657600080fd5b611eaf86611c30565b9450611ebd60208701611c30565b9350604086013567ffffffffffffffff80821115611eda57600080fd5b611ee689838a01611d9f565b94506060880135915080821115611efc57600080fd5b611f0889838a01611d9f565b93506080880135915080821115611f1e57600080fd5b50611f2b88828901611e6e565b9150509295509295909350565b60008060408385031215611f4b57600080fd5b823567ffffffffffffffff80821115611f6357600080fd5b818501915085601f830112611f7757600080fd5b81356020611f8482611d7b565b604051611f918282611d4e565b83815260059390931b8501820192828101915089841115611fb157600080fd5b948201945b83861015611fd657611fc786611c30565b82529482019490820190611fb6565b96505086013592505080821115611fec57600080fd5b50611ff985828601611d9f565b9150509250929050565b600081518084526020808501945080840160005b8381101561203357815187529582019590820190600101612017565b509495945050505050565b602081526000611ca96020830184612003565b60006020828403121561206357600080fd5b813567ffffffffffffffff81111561207a57600080fd5b8201601f8101841361208b57600080fd5b610fc484823560208401611e10565b600080604083850312156120ad57600080fd5b50508035926020909101359150565b600080604083850312156120cf57600080fd5b823567ffffffffffffffff808211156120e757600080fd5b6120f386838701611d9f565b93506020850135915080821115611fec57600080fd5b6000806040838503121561211c57600080fd5b61212583611c30565b91506020830135801515811461213a57600080fd5b809150509250929050565b6000806040838503121561215857600080fd5b61216183611c30565b915061216f60208401611c30565b90509250929050565b600080600080600060a0868803121561219057600080fd5b61219986611c30565b94506121a760208701611c30565b93506040860135925060608601359150608086013567ffffffffffffffff8111156121d157600080fd5b611f2b88828901611e6e565b6000602082840312156121ef57600080fd5b611ca982611c30565b600181811c9082168061220c57607f821691505b60208210810361222c57634e487b7160e01b600052602260045260246000fd5b50919050565b6000808454612240816121f8565b60018281168015612258576001811461226d5761229c565b60ff198416875282151583028701945061229c565b8860005260208060002060005b858110156122935781548a82015290840190820161227a565b50505082870194505b5050505083516122b0818360208801611cb0565b64173539b7b760d91b9101908152600501949350505050565b6020808252602f908201527f455243313135353a2063616c6c6572206973206e6f7420746f6b656e206f776e60408201526e195c881b9bdc88185c1c1c9bdd9959608a1b606082015260800190565b634e487b7160e01b600052603260045260246000fd5b634e487b7160e01b600052601160045260246000fd5b6000600182016123565761235661232e565b5060010190565b601f82111561141757600081815260208120601f850160051c810160208610156123845750805b601f850160051c820191505b8181101561116e57828155600101612390565b815167ffffffffffffffff8111156123bd576123bd611d38565b6123d1816123cb84546121f8565b8461235d565b602080601f83116001811461240657600084156123ee5750858301515b600019600386901b1c1916600185901b17855561116e565b600085815260208120601f198616915b8281101561243557888601518255948401946001909101908401612416565b50858210156124535787850151600019600388901b60f8161c191681555b5050505050600190811b01905550565b60208082526021908201527f4552524f522c206d696e74696e6720746f6f206d616e7920617420612074696d6040820152606560f81b606082015260800190565b600082198211156124b7576124b761232e565b500190565b60208082526029908201527f4552524f522c206d696e74696e6720776f756c6420676f206f766572207375706040820152681c1b1e481b1a5b5a5d60ba1b606082015260800190565b600081600019048311821515161561251f5761251f61232e565b500290565b60208082526028908201527f455243313135353a2069647320616e6420616d6f756e7473206c656e677468206040820152670dad2e6dac2e8c6d60c31b606082015260800190565b634e487b7160e01b600052601260045260246000fd5b6000826125915761259161256c565b500490565b6000828210156125a8576125a861232e565b500390565b6000826125bc576125bc61256c565b500690565b60208082526025908201527f455243313135353a207472616e7366657220746f20746865207a65726f206164604082015264647265737360d81b606082015260800190565b6020808252602a908201527f455243313135353a20696e73756666696369656e742062616c616e636520666f60408201526939103a3930b739b332b960b11b606082015260800190565b6040815260006126636040830185612003565b82810360208401526126758185612003565b95945050505050565b60208082526021908201527f455243313135353a206d696e7420746f20746865207a65726f206164647265736040820152607360f81b606082015260800190565b828152604060208201526000610fc46040830184611ce0565b8381528260208201526060604082015260006126756060830184611ce0565b6001600160a01b0386811682528516602082015260a06040820181905260009061272390830186612003565b82810360608401526127358186612003565b905082810360808401526127498185611ce0565b98975050505050505050565b60006020828403121561276757600080fd5b8151611ca981611c76565b600060033d111561278b5760046000803e5060005160e01c5b90565b600060443d101561279c5790565b6040516003193d81016004833e81513d67ffffffffffffffff81602484011181841117156127cc57505050505090565b82850191508151818111156127e45750505050505090565b843d87010160208285010111156127fe5750505050505090565b61280d60208286010187611d4e565b509095945050505050565b60208082526028908201527f455243313135353a204552433131353552656365697665722072656a656374656040820152676420746f6b656e7360c01b606082015260800190565b6001600160a01b03868116825285166020820152604081018490526060810183905260a06080820181905260009061289a90830184611ce0565b97965050505050505056fea2646970667358221220de4166360d07be77d30857af8e2c960c782c92666a0c146945b1a7633bfab3aa64736f6c634300080f0033",
    "linkReferences": {}
  },
  "methodIdentifiers": {
    "CLOUD()": "788255ea",
    "FRIEND()": "697ffbc6",
    "MAX_SUPPLY()": "32cb6b0c",
    "MINT_LIMIT()": "02775240",
    "MINT_PRICE()": "c002d23d",
    "PLEASURE()": "c2d219c0",
    "SUCCESS()": "d0a6d1a6",
    "WORK()": "1b607cd4",
    "balanceOf(address,uint256)": "00fdd58e",
    "balanceOfBatch(address[],uint256[])": "4e1273f4",
    "baseURI()": "6c0360eb",
    "exists(uint256)": "4f558e79",
    "isApprovedForAll(address,address)": "e985e9c5",
    "isValidTokenId(uint256)": "2c1b38ee",
    "mintBatchOfWords(uint256[],uint256[])": "7a1cd1fa",
    "mintYourWord(uint256,uint256)": "5812d9a7",
    "name()": "06fdde03",
    "owner()": "8da5cb5b",
    "renounceOwnership()": "715018a6",
    "safeBatchTransferFrom(address,address,uint256[],uint256[],bytes)": "2eb2c2d6",
    "safeTransferFrom(address,address,uint256,uint256,bytes)": "f242432a",
    "setApprovalForAll(address,bool)": "a22cb465",
    "supportsInterface(bytes4)": "01ffc9a7",
    "totalSupply(uint256)": "bd85b039",
    "transferOwnership(address)": "f2fde38b",
    "updateUri(string)": "570b3c6a",
    "uri(uint256)": "0e89341c",
    "withdrawBalance()": "5fd8c710"
  },
  "id": 19
}